:020000040800F2
:1000000000000320ED260108C9300008CB300008AD
:10001000CD300008CF300008D130000800000000CB
:10002000000000000000000000000000916E0008C9
:10003000D330000800000000316F0008D530000800
:100040003D2701083D2701083D2701083D270108FC
:100050003D2701083D2701083D2701083D270108EC
:100060003D2701083D2701083D2701083D270108DC
:100070003D2701083D2701083D2701083D270108CC
:100080003D2701083D2701083D2701083D270108BC
:100090003D2701083D2701083D2701083D270108AC
:1000A0003D2701083D2701083D2701083D2701089C
:1000B0003D2701083D2701083D2701083D2701088C
:1000C0003D2701083D2701083D2701083D2701087C
:1000D0003D2701083D2701083D2701083D2701086C
:1000E0003D2701083D2701083D2701083D2701085C
:1000F0003D2701083D2701083D2701083D2701084C
:100100003D2701083D2701083D2701083D2701083B
:100110003D2701083D2701083D2701083D2701082B
:100120003D2701083D2701083D2701083D2701081B
:100130003D270108ED3000083D2701083D27010853
:100140003D2701083D2701083D2701083D270108FB
:100150003D2701083D2701083D2701083D270108EB
:100160003D2701083D2701083D2701083D270108DB
:100170003D2701083D2701083D2701080000000038
:100180003D2701083D2701083D2701083D270108BB
:100190003D2701083D2701083D2701083D270108AB
:0C01A0003D2701083D2701083D2701080C
:1001C0000348044B834202D0034B03B118477047E6
:1001D0007C0000207C00002000000000054806494B
:1001E0000B1AD90F01EBA301491002D0034B03B145
:1001F000184770477C0000207C00002000000000B1
:1002000010B5064C237843B9FFF7DAFF044B13B15E
:100210000448AFF300800123237010BD7C00002050
:10022000000000004027010808B5044B1BB1044939
:100230000448AFF30080BDE80840CFE700000000AD
:10024000800000204027010870B50D4E0D4D761B33
:10025000B61006D00024013455F8043B9847A64256
:10026000F9D1094E094D761B12F06AFAB61006D084
:100270000024013455F8043B9847A642F9D170BDDB
:10028000305C0108305C0108345C0108305C010816
:10029000032A70B412D940EA0105AD0704460B46A3
:1002A00020D11946204653F8045B54F8046BAE4243
:1002B00018D1043A032A20461946F2D8541E72B1C6
:1002C00003780A789A4208BF241806D00CE010F888
:1002D000013F11F8012F934206D1A042F7D100202F
:1002E00070BC7047541EEBE7981A70BC704700BF93
:1002F000844641EA000313F003036DD1403A41D331
:1003000051F8043B40F8043B51F8043B40F8043BEF
:1003100051F8043B40F8043B51F8043B40F8043BDF
:1003200051F8043B40F8043B51F8043B40F8043BCF
:1003300051F8043B40F8043B51F8043B40F8043BBF
:1003400051F8043B40F8043B51F8043B40F8043BAF
:1003500051F8043B40F8043B51F8043B40F8043B9F
:1003600051F8043B40F8043B51F8043B40F8043B8F
:1003700051F8043B40F8043B51F8043B40F8043B7F
:10038000403ABDD2303211D351F8043B40F8043B1F
:1003900051F8043B40F8043B51F8043B40F8043B5F
:1003A00051F8043B40F8043B103AEDD20C3205D32F
:1003B00051F8043B40F8043B043AF9D2043208D027
:1003C000D2071CBF11F8013B00F8013B01D30B8899
:1003D00003806046704700BF082A13D38B078DD077
:1003E00010F003038AD0C3F10403D21ADB071CBF49
:1003F00011F8013B00F8013B80D331F8023B20F8B3
:10040000023B7BE7043AD9D3013A11F8013B00F8EB
:10041000013BF9D20B7803704B7843708B78837073
:10042000604670478842F0B40DD98B1883420AD9D0
:10043000841832B1224613F8014D02F8014D994259
:10044000F9D1F0BC70470F2A0ED80346541E002A7B
:10045000F7D001340C44013B11F8012B03F8012FB4
:10046000A142F9D1F0BC704740EA01039B073BD1A0
:10047000A2F110073F0901F1200606EB071601F172
:10048000100300F1100453F8105C44F8105C53F8AA
:100490000C5C44F80C5C53F8085C44F8085C53F8B6
:1004A000045C44F8045C1033B34204F11004EAD154
:1004B0007B1C1B0112F00C0F194402F00F050344C2
:1004C00015D0043DAD0803EB850C1C1F0E4656F8F5
:1004D000047B44F8047F6445F9D10135AD002B4419
:1004E000294402F00302B1E7541E0346B1E72A464D
:1004F000ACE700BFF0B4860746D0541E002A3CD0BB
:10050000CAB2034602E014F1FF3436D303F8012BDC
:100510009D07F8D1032C29D9CDB245EA05250F2C2A
:1005200045EA054533D9A4F11006360903F1200741
:1005300007EB061703F1100242E9045542E90255A0
:100540001032BA42F8D1721C14F00C0F03EB0212F5
:1005500004F00F0613D0331F23F0030304331344B6
:1005600042F8045B9342FBD106F003042CB1C9B2FC
:100570001C4403F8011B9C42FBD1F0BC704734467D
:100580001346002CF3D1F8E714460346C2E71A4697
:100590002646E0E70EB410B5044683B008B183697F
:1005A00063B106A803460190059AA168204600F0B1
:1005B00057FE03B0BDE8104003B0704700F09AFA50
:1005C000EFE700BF0FB410B50B4B1C6882B00CB145
:1005D000A36963B105A803460190049AA168204667
:1005E00000F03EFE02B0BDE8104004B07047204667
:1005F00000F080FAEEE700BF0000002038B5124B93
:100600001C68A26B05461AB10023C2E9045338BD29
:10061000182000F001FB0246A06378B10120002100
:100620000A4B1360C2E904010B230948094993816D
:100630000023C2E90101C2E9045338BD064B074853
:10064000422100F04BF900BF000000200E33CDAB7B
:1006500034126DE6ECDE0500605B0108785B010892
:1006600038B51A4B1C68A26B92B1146918495369CA
:10067000184801FB04F100FB0313A4FB0045611CB7
:100680001D4445F1000323F00040C2E9041338BDC6
:10069000182000F0C1FA0246A06388B101200021B1
:1006A000C2E904010A480C4C0C4B0D490D4D146075
:1006B00053600B24034695609481C2E9041338BD4E
:1006C000094B0A484E2100F009F900BF0000002044
:1006D0002DF451582D7F954C0E33CDAB34126DE671
:1006E0002E7F954CECDE0500605B0108785B01080D
:1006F00008B430B5002A9CB0044635DB4FF40273D1
:1007000002910691ADF8143020A918D0013A0B4699
:100710000492079201911F9A4FF6FF7502A9ADF856
:10072000165000F01FFC421C01DA8B232360029B51
:1007300000221A701CB0BDE8304001B070470B4673
:100740000492079201914FF6FF751F9AADF816506B
:1007500002A900F007FC431C01DA8B2323601CB0C4
:10076000BDE8304001B070478B2202604FF0FF308F
:10077000F5E700BF0CB430B5204B00299DB01C68D4
:1007800037DB4FF4027302900690ADF8143021A8C5
:1007900019D001390346209A0491079101904FF630
:1007A000FF7502A92046ADF8165000F0DBFB421C95
:1007B00001DA8B232360029B00221A701DB0BDE872
:1007C000304002B0704703460491079101904FF604
:1007D000FF75209AADF8165002A9204600F0C2FB22
:1007E000431C01DA8B2323601DB0BDE8304002B00A
:1007F00070478B2323604FF0FF30F5E700000020A7
:1008000090F800F06DE9024520F007016FF0000C50
:1008100010F0070491F820F040F049804FF00004F8
:100820006FF00700D1E9002391F840F000F10800D3
:1008300082FA4CF2A4FA8CF283FA4CF3A2FA8CF30B
:100840004BBBD1E9022382FA4CF200F10800A4FA72
:100850008CF283FA4CF3A2FA8CF3E3B9D1E90423C6
:1008600082FA4CF200F10800A4FA8CF283FA4CF3FD
:10087000A2FA8CF37BB9D1E9062301F1200182FAB7
:100880004CF200F10800A4FA8CF283FA4CF3A2FABD
:100890008CF3002BC6D0002A04BF04301A4612BACB
:1008A000B2FA82F2FDE8024500EBD2007047D1E9CE
:1008B000002304F00305C4F100004FEAC50514F05D
:1008C000040F91F840F00CFA05F562EA05021CBF2E
:1008D00063EA050362464FF00004A9E700B50A4C3D
:1008E0002668054685B01C46F06852B1074B00915A
:1008F000CDE9013206492B46224600F029F901F0E4
:100900004FF9044B1A46F2E700000020AC5B0108E7
:10091000BC5B0108383A010808B513460022FFF70E
:10092000DDFF00BF00207047014900F04BB900BF58
:10093000011D00080020704770B54A1E682505FBA0
:1009400002F50E4605F1740100F0CCF9044640B101
:1009500000210C30666005F168022160A060FFF79D
:10096000C9FD204670BD00BF1E4B70B51D68AB6948
:10097000064643B34835D5E90134013B05D51EE0B1
:10098000013B5A1C04F1680419D0B4F90C20002A68
:10099000F6D10025144B6566C4E90055A560C4E98D
:1009A0000455A5612946E360082204F15C00FFF7C5
:1009B000A1FDC4E90D55C4E91255204670BD2C684F
:1009C0002CB12546D7E7284600F010F8D2E70421DD
:1009D0003046FFF7B1FF044628600028F1D10C2310
:1009E0003360EAE7582701080100FFFF2DE9F84FBF
:1009F000334B34491A68816290424FF00003C0E9DA
:100A00001233036504BF012383610546FFF7ACFF82
:100A100068602846FFF7A8FFA8602846FFF7A4FFF4
:100A20006E68E86000240423F3607466C6E900443D
:100A3000B460C6E90444B461214606F15C000822B2
:100A4000FFF758FDDFF888B0AF68DFF888A0DFF85F
:100A50008890DFF888801C4BC6F83080C6E9086BA8
:100A6000C6E90AA92146FB6008227C66C7E9004462
:100A7000BC60C7E90444BC6107F15C00FFF73AFDC4
:100A8000EE68124BC7F83080C7E9087BC7E90AA9AE
:100A90002146F3607466C6E90044B460C6E90444C4
:100AA000B46106F15C000822FFF724FD0123C6E9CA
:100AB000086BC6E90AA9C6F83080AB61BDE8F88FBB
:100AC0005827010829090008090001001200020046
:100AD000251900084D1900088D190008AD190008E6
:100AE000024B0349186800F06DB800BF5827010891
:100AF000011D0008836903B978E77047704700BF9C
:100B0000704700BF704700BF704700BF024B0349EA
:100B1000186800F031B800BF000000202509000867
:100B2000024B0349186800F027B800BF00000020FE
:100B3000350900080CB400B583B004AB53F8042B9E
:100B4000019300F08DFB03B05DF804EB02B0704739
:100B50000EB410B583B005AB064C53F8042B0193CB
:100B60000146206800F07CFB03B0BDE8104003B0F4
:100B7000704700BF000000202DE9F04110F1480748
:100B80001BD088460026D7E90154013D0FD4A38924
:100B9000012B05F1FF3506D9B4F90E30013320469B
:100BA00001D0C04706436B1C04F16804EFD13F68D5
:100BB000002FE8D13046BDE8F0813E463046BDE822
:100BC000F08100BF2DE9F84310F148071FD0884697
:100BD00006464FF00009D7E90154013D11D4A3891D
:100BE000012B05F1FF3508D9B4F90E300133214648
:100BF000304602D0C04749EA00096B1C04F1680482
:100C0000EDD13F68002FE6D14846BDE8F883B946EC
:100C10004846BDE8F88300BF024B0146186800F063
:100C200061B800BF00000020024B0146186800F0C8
:100C300003B800BF0000002000293CD038B551F8AF
:100C4000043C0C1F002BB8BFE418054601F000FB64
:100C5000234B1A682AB1A2420DD92168601882423A
:100C600023D0626028461C60BDE8384001F0F2BA2B
:100C7000A34203D81A465368002BF9D111685018C3
:100C8000A04219D024D821686018834206D063603E
:100C900054602846BDE8384001F0DCBAD3E90003CF
:100CA0000144636021605460F3E7D2E9000201442B
:100CB00062602160D6E77047206801445018834283
:100CC0001160E6D1D3E90003014453601160E0E70D
:100CD0000C232B602846BDE8384001F0BBBA00BFAA
:100CE00098000020F8B5CD1C25F0030508350C2D23
:100CF00038BF0C25002D064633DBA94231D82A4FD8
:100D000001F0A6FA3A6852B113685B1B04D43FE0C5
:100D100023685B1B29D522465468002CF8D17968DA
:100D200000293BD02946304600F0EAFD431C28D07C
:100D3000C41C24F00304A04205D0211A304600F060
:100D4000DFFD01301DD02560304601F083FA04F14B
:100D50000B0020F00700231DC21A01D01B1AA3505C
:100D6000F8BD0C2232600020F8BD0B2B05D8A24242
:100D7000636811D05360E7E7144623601C44256084
:100D8000E2E70C233046336001F064FA0020F8BD3E
:100D90000B2BF1D8536814463B60D5E7304600F082
:100DA000AFFD7860BEE700BF980000202DE9F04756
:100DB0008E681D46AE420C460B68174636D88046F4
:100DC000888910F4906F0ED1354618462A46394668
:100DD000FFF728FBA2682368961B2B44A6602360BC
:100DE0000020BDE8F087D1E9041606EB4606A3EB28
:100DF000010906EBD6766B1C76104B44B3423246A3
:100E000084BF1E463246430512D511464046FFF7C1
:100E100069FF824600B34A462169FFF769FAA38950
:100E200023F4906343F08003A38106E02E46CCE7D1
:100E3000404601F011FA824650B1A6EB09020AEBD6
:100E400009036661C4F810A02360A2602E46BCE7C7
:100E500021694046FFF7F0FE0C23C8F80030A38953
:100E600043F04003A3814FF0FF30BAE72DE9F04F84
:100E7000936883B09046002B6DD017688D688246CA
:100E80000C460868083743E0A38913F4906F2ED00E
:100E9000D4E9041505EB4505A0EB010B05EBD57571
:100EA0000BEB06006D100130A8422A4684BF0546B0
:100EB0002A465B0536D511465046FFF713FF00283A
:100EC0003AD05A4621690190FFF712FAA289019B94
:100ED00022F4906242F08002A281A5EB0B0203EBA8
:100EE0000B00656123612060A2603546B3465A4617
:100EF0004946FFF797FAD8F80830A2682068551BD2
:100F000058449E1BA5602060C8F808601EB30837CF
:100F100057E90296AB46002EF9D0AE42B4D2354620
:100F2000B346E4E7504601F097F903460028D4D1D0
:100F300021695046FFF780FE0C23CAF80030A389D0
:100F4000002243F040034FF0FF30A381C8E90122A3
:100F500003B0BDE8F08F0020C8F8040003B0BDE87E
:100F6000F08F00BF2DE9F04F90468A899FB014069C
:100F70008B46029003D50A69002A00F00B81059385
:100F800030238DF8323098F800308E4E0021202228
:100F90000B918DF831200127002B00F08480252B48
:100FA00000F0F680454603E0252B00F086802546BC
:100FB0006B786C1C002BF7D1B4EB080A73D0424657
:100FC000534659460298FFF7F1FE01306BD00B9B58
:100FD0006A7853440B93002A65D000234FF0FF3208
:100FE00001340693CDE908338DF85B301C930792EA
:100FF00005E0069A07FA03F313432C4606932546A9
:10100000052215F8011B304601F0D2F8AA46831BD1
:101010000028EED1069BD90644BF20228DF85B2024
:1010200021781A0744BF2B228DF85B202A2948D14A
:10103000059A11680432002905927EDB09916178D6
:10104000A51C2E2956D0604C0322204601F0B0F892
:10105000002868D0001B069B402404FA00F00343DC
:10106000069305F10108297858488DF830100622BA
:1010700001F09EF8002866D0554B002B56D005ABEA
:1010800000935A46534B029806A9AFF3008081465D
:10109000B9F1FF3F07D00B9B4B440B9398F80030FE
:1010A000002B7FF47CAFBBF80C305B0654BF0B9871
:1010B0004FF0FF301FB0BDE8F08FB4EB080A8CD0C2
:1010C0007DE7A1F13002092A88BFA246B9D8099B61
:1010D00001E02C460135297803EB830302EB43033F
:1010E000A1F13002092AAA46F3D92E2904F10205FA
:1010F0000993A8D19AF801102A292ED1059B9AF8B4
:1011000002101A6807920433002A05930AF10305B6
:101110000AF1020337DB2C4C032220469A4601F0E9
:1011200047F8002896D1A84655469CE7059B07330B
:1011300023F0070308330593ADE7494243F0020368
:10114000099106937BE705AB00935A46214B029821
:1011500006A900F089FA81469AE7A1F1300200233E
:10116000092A079301D923E05546697803EB8303E5
:1011700002EB4303A1F13002092A05F1010AF3D978
:10118000023507935FE74FF0FF329A4607925AE71E
:10119000444622E740210393FFF7A4FD039BCBF8CD
:1011A0000000CBF8100030B14022CBF81420E6E666
:1011B000AA46013547E7029A0C2313604FF0FF302F
:1011C00078E700BFEC5B0108F45B0108F85B0108FD
:1011D00000000000AD0D00089368013B002B9360F8
:1011E00011DA10B49469A34209DB0A2907D0136805
:1011F000581C1060197008465DF8044B70475DF884
:10120000044B00F0D7BB1368581C106019700846D7
:10121000704700BF9BB1F8B513440F4606465D1EEC
:10122000541E01E0AC4208D03A4614F8011F304683
:10123000FFF7D2FF431CF5D1F8BD0020F8BD002018
:10124000704700BF936810B5144613B95360184631
:1012500010BD00F097FD0023C4E9013310BD00BFAD
:101260002DE9F04F9FB08B4690461C46039018B175
:101270008369002B00F0B780A24B9B4500F0B9803A
:10128000A14B9B4500F0C780A04B9B4504BF039B2F
:10129000D3F80CB0BBF80C30180740F1B280DBF883
:1012A0001030002B00F0AD8030238DF8323098F8EC
:1012B00000300594002120220B918DF83120944EAE
:1012C0000127002B00F08780252B00F01581454673
:1012D00003E0252B00F0A38025466B786C1C002BC7
:1012E000F7D1B4EB080A76D04246534659460398E4
:1012F000FFF790FF01306ED00B9B6A7853440B933D
:10130000002A68D000234FF0FF3201340693CDE964
:1013100008338DF85B301C93079205E0069A07FAB4
:1013200003F313432C4606932546052215F8011BAB
:10133000304600F03DFFAA46831B0028EED1069BF5
:10134000D90644BF20228DF85B2021781A0744BFBC
:101350002B228DF85B202A2966D1059A1168043268
:1013600000290592C0F29D8009916178A51C2E2963
:1013700073D0684C0322204600F01AFF002800F0CA
:101380008680001B069B402404FA00F0034306936A
:1013900005F10108297860488DF83010062200F028
:1013A00007FF002800F083805C4B002B72D005AB58
:1013B00000935A465A4B039806A9AFF30080814622
:1013C000B9F1FF3F07D00B9B4B440B9398F80030CB
:1013D000002B7FF479AFBBF80C305B0618D40B9868
:1013E0001FB0BDE8F08FFFF785FB464B9B457FF4B0
:1013F00047AF039BD3F804B0BBF80C3018073FF598
:101400004EAF5946039800F04BFB00283FF44CAF19
:101410004FF0FF30E4E7039BD3F808B03AE7B4EBB2
:10142000080A3FF46FAF5FE7A1F13002092A88BFD5
:10143000A2469CD8099B01E02C460135297803EB94
:10144000830302EB4303A1F13002092AAA46F3D930
:101450002E2904F1020509938BD19AF801102A294B
:101460002FD1059B9AF802101A6807920433002ABC
:1014700005930AF103050AF1020338DB254C032228
:1014800020469A4600F094FE00287FF47AAFA846E2
:1014900055467FE7059B073323F007030833059381
:1014A00091E7494243F00203099106935DE705ABDA
:1014B00000935A461A4B039806A900F0D5F88146C6
:1014C0007EE7A1F130020023092A079301D915E034
:1014D0005546697803EB830302EB4303A1F1300225
:1014E000092A05F1010AF3D90235079341E74FF0C4
:1014F000FF329A4607923CE7444603E7AA46013585
:1015000037E700BF9C2701087C2701085C270108FA
:10151000EC5B0108F45B0108F85B010800000000C7
:101520001512000810B4044C13460A460146206800
:101530005DF8044BFFF794BE000000202DE9F04752
:101540000C4691460A698968DDF820808A42B8BF56
:101550000A46C9F8002094F8431006461F4611B108
:101560000132C9F80020236899065CD5D9F800201B
:101570000232C9F80020236813F0060F19461DD166
:10158000E1688A1A002AD8BF194617DD04F1190A42
:10159000002505E0E368D9F800209B1AAB420CDD7A
:1015A0000123524639463046C047013005F1010556
:1015B000F0D14FF0FF30BDE8F087216894F8433058
:1015C000003318BF01238A060AD5E1185A1C3020BF
:1015D00081F84300224494F8451082F84310023306
:1015E00004F1430239463046C0470130E1D0236858
:1015F000A268216903F00603042B1DD08A4226DD70
:101600004FF00009521A91441A34002501E04D456B
:101610001DDA0123224639463046C047013005F124
:101620000105F4D1C5E713F0060F13D094F8433049
:10163000003318BF0123D3E7D9F80000E3688A42DA
:10164000A3EB000323EAE379DCDC002BDCDC0020E5
:10165000BDE8F087E168D9F800208A1A002AD8BFCF
:10166000194693DCAAE700BF2DE9F0430C46097E3A
:1016700085B06E29064617460C98984604F1430E2D
:101680006DD039D9732900F0F68044D9752900F05E
:101690000481782940F0118178232268DFF858C24C
:1016A00084F845300168150651F8043B016040F1AB
:1016B000A180D10744BF42F020022260002B00F03D
:1016C00093801022002184F843106068A0600028F5
:1016D000C0F2C880216821F004012160002B40F095
:1016E000A380002840F0C0807546082A00F0AC8036
:1016F000AEEB0503236141E0632900F0E5801AD8D1
:10170000002938D0582940F0D88084F84510226844
:10171000DFF8E8C1C6E76F2900F0BF80702940F00C
:10172000CC802268DFF8D0C142F02002782322600A
:1017300084F84530B6E7642902D0692940F0BD80BD
:1017400022680368110603F1040557D5196805607E
:101750000B46002959DBDFF8A4C10A22B5E703686C
:10176000226861691D1D056015061B6802D45006BC
:1017700000F1BD801960002375462361CDF800801B
:101780003B4603AA21463046FFF7D8FE013020D061
:101790002A46236939463046C047013019D02268AD
:1017A0000398E368920719D51A1A002A16DD04F186
:1017B0001909002504E0E36803981A1AAA420DDD0E
:1017C00001234A4639463046C047013005F101053C
:1017D000F1D14FF0FF3005B0BDE8F0839842B8BFBB
:1017E000184605B0BDE8F083226822F0200222608E
:1017F000102267E7500648BF9BB25AE75106A5D5AD
:10180000B3F9003005601946A3E76168A1602D2097
:101810000029C3F1000384F8430002DB22F0040234
:101820002260DFF8D8C00A22754600E00B46B3FB01
:10183000F2F102FB113093421CF8000005F8010D93
:10184000F4D2082A7FF454AF2368DB077FF550AF4A
:10185000626823699A423FF74BAF302305F8013C99
:10186000013D45E7002BDFD19CF8003084F8423081
:1018700004F1420539E703686268191D01601D68BB
:101880000021284600F094FC002832D0401B606004
:101890002061002384F8433070E72268036812F067
:1018A000800F03F104051AD01B6805606F290CBF77
:1018B00008220A22DFF844C004E7012384F842101A
:1018C000236104F14205E4E703681A68191D012346
:1018D000016004F1420584F842202361D9E712F047
:1018E000400F0DBF1B6805601B880560DEE719808F
:1018F00041E76068CCE700BF145C0108005C0108A8
:1019000038B5074C002305460846236000F004FE66
:10191000431C00D038BD2368002BFBD02B6038BDA2
:10192000D0B8002010B50C46B1F90E1000F0BAFC8A
:10193000002803DB636D0344636510BDA38923F4B2
:101940008053A38110BD00BF002070472DE9F041F6
:101950001646B1F90C201F46D3050C460546B1F9D1
:101960000E1009D422F48052A2813B46324628460A
:10197000BDE8F04100F07EB80022022300F086FBB3
:10198000B4F90C20B4F90E10ECE700BF10B50C460A
:10199000B1F90E1000F07AFBA389421C0EBF23F4AC
:1019A000805343F480536065A38110BDB1F90E10DC
:1019B00000F0FEB8F8B50D461446064608B1836936
:1019C00043B3254B9C422AD0244B9C4229D0244B24
:1019D0009C4208BFF468A389A269A2601A0722D5B5
:1019E000236903B322686169D31AEDB299422F4685
:1019F00029DD0133A168501C0139A16020601570F8
:101A000062699A4216D0A389DB0701D50A2D11D04D
:101A10003846F8BDFFF76EF80F4B9C42D4D174687E
:101A2000D9E7B468D7E72146304600F039F838B92D
:101A30002369D7E72146304600F062F90028E7D055
:101A40004FF0FF37E4E72146304600F059F900280F
:101A5000F6D122680123CDE79C2701087C270108E5
:101A60005C270108024B0A4601461868FFF7A2BF2F
:101A70000000002070B50D46084C114606461A4677
:101A800028460023236000F055FD431C00D070BDA4
:101A90002368002BFBD0336070BD00BFD0B800209E
:101AA0003B4B70B51D6806460C460DB1AB69DBB10A
:101AB000384B9C421ED0384B9C424AD0374B9C42FC
:101AC00008BFEC68B4F90C2093B2190718D5206947
:101AD00008B313F001022CD0636900225B42A361BA
:101AE000A26060B3002070BD2846FFF703F8294BC1
:101AF0009C42E0D16C68B4F90C2093B21907E6D48B
:101B0000DD063CD5580726D4206942F00803A3819E
:101B10009BB20028DDD103F42072B2F5007FD8D04B
:101B20003046214600F0F6FAA389206913F001023D
:101B3000D2D1990758BF6269A2600028D2D1B4F906
:101B40000C301A06CFD543F04003A3814FF0FF308D
:101B500070BDAC68B6E7616B51B104F144039942C2
:101B600004D03046FFF768F8B4F90C200023636313
:101B700000232069636022F024022060C5E742F060
:101B80004002092333604FF0FF30A28170BD00BFD7
:101B9000000000209C2701087C2701085C27010821
:101BA00008B5062000F01AFC012000F0CBFC00BFB5
:101BB00038B5074C002305460846236000F074FC46
:101BC000431C00D038BD2368002BFBD02B6038BDF0
:101BD000D0B800208B891A072DE9F0410C468046C9
:101BE00041D44A68002A59DDE66A002E53D000220B
:101BF000D8F80050216AC8F8002013F4805251D15F
:101C000001234046B047431C5FD0A389E66A216A9E
:101C10005F0705D56268636B801A0BB1236CC01A2D
:101C2000024600234046B047461C45D1D8F8003054
:101C3000B4F90C20002B55D01D2B01D0162B5AD1F6
:101C400023690022C4E90032616BC8F8005011B367
:101C500004F14403994202D04046FEF7EDFF002014
:101C60006063BDE8F0810E69AEB10D680E60990742
:101C70000CBF63690023AD1BA3600AE02B4632460C
:101C8000A76A216A4046B8470028A5EB000506442C
:101C90000ADD002DF2DC0020BDE8F0810A6C002A8C
:101CA000A2DCF8E7606DB3E7A38943F04003A381AA
:101CB0004FF0FF30BDE8F0812269A3892260002245
:101CC0006260DA04C0D56065BEE7D8F80030002B4A
:101CD0009BD01D2B0CD0162B0AD0A38943F04003B8
:101CE000A381D9E72169C4E90013D304ACD5EAE79D
:101CF000C8F80050CFE742F04002A281CCE700BF15
:101D00000B6923B310B5044682B008B18369BBB137
:101D1000104B994212D0104B994216D00F4B99425A
:101D200008BFE168B1F90C302BB1204602B0BDE824
:101D30001040FFF74FBF002002B010BD6168F1E70F
:101D40000191FEF7D7FE0199E2E7A168EAE70020DA
:101D5000704700BF9C2701087C2701085C27010809
:101D600020B1054B01461868FFF7CABF034B044971
:101D70001868FEF727BF00BF0000002058270108A1
:101D8000011D00089368002B00F002812DE9F04F3F
:101D9000B1F90C309BB20C46190783B082469046CD
:101DA00035D522699AB313F00202D8F800603DD00D
:101DB0000027D4F828B0D4F820C0DFF8CC923D46F4
:101DC0004D452B463A4628BF4B4661465046D5B155
:101DD000D847002840F3D280D8F808301B1A0744AF
:101DE0002D1AC8F80830002B00F0B780D4F820C0B6
:101DF000D4F828B04D452B463A4628BF4B4661469D
:101E00005046002DE4D1D6E900750836D8E72146C2
:101E10005046FFF745FE002840F03081B4F90C3001
:101E2000D8F800609BB213F00202C1D113F001098F
:101E300040F0B080A76820684D46002D54D09A0528
:101E400040F1BC80AF42BB4600F2E78013F4906FD4
:101E50002FD0D4E9041707EB4707A0EB010B07EBE2
:101E6000D777681C7F105844B8423A4684BF07466B
:101E70003A465B0540F1E98011465046FEF732FFD5
:101E8000002800F0F5805A4621690190FEF730FAEB
:101E9000A289019B22F4906242F08002A281A7EB0A
:101EA0000B0203EB0B00676123612060A2602F46E9
:101EB000AB465A464946FEF7B5FAA2682368D21BDC
:101EC0005B442F46A26023600025D8F80830DB1B56
:101ED000B944C8F80830002B3FD0B4F90C30A768DB
:101EE00020689BB2002DAAD1D6E900950836A4E758
:101EF0000BF1080353E902679B460833002FF9D022
:101F00003A460A21304600F053F9002853D00130F8
:101F1000A0EB06094B46D4E904122068BB4228BF57
:101F20003B46884203D9A5681544AB4219DC9A4266
:101F30007DDC1346A56A216A32465046A847051E35
:101F40001CDDB9EB05096BD00120D8F808305B1B0C
:101F50002E447F1BC8F8083013BB002003B0BDE837
:101F6000F08F31462A46FEF75DFA23682B44236042
:101F700021465046FFF7C4FE0028E2D0B4F90C30E9
:101F800043F040034FF0FF30A38103B0BDE8F08F72
:101F90000020704733469146104617464E469B46F2
:101FA000002FA5D00028B5D13A460A21304600F0CE
:101FB000FFF80028ABD17B1C9946ACE7236983422C
:101FC00015D36169A94212D82E4BA76A9D4294BFCE
:101FD0002B466FF000434A4693FBF1F3504601FB5A
:101FE00003F3216AB847071EC8DDED1B6DE7AF425A
:101FF00028BF2F463A464946FEF714FAA3682268DE
:10200000DB1B3A44A3602260002BEED121465046F0
:10201000FFF776FE0028E8D0B0E72F46AB4648E74A
:1020200021465046FFF76CFE00288ED0A6E71A46E0
:1020300031460193FEF7F6F9019BA1682268C91A9F
:102040001A44A16022601D467BE7504600F004F967
:10205000034600287FF423AF21695046FEF7ECFDCC
:10206000B4F90C300C2223F08003CAF8002087E773
:102070000C23CAF80030B4F90C3081E74FF0FF3080
:102080006CE700BFFEFFFF7F00FCFF7F70B50D46D1
:10209000084C114606461A4628460023236000F0E5
:1020A0002BFA431C00D070BD2368002BFBD033609B
:1020B00070BD00BFD0B8002070B50C46B1F90E104D
:1020C000002996B016461D4613DB6A4600F0BEF99D
:1020D00000280EDB019A02F47042A2F50052B2FA17
:1020E00082F252094FF4806300202A60336016B0F8
:1020F00070BDA38900221B062A6004D5402300205E
:10210000336016B070BD4FF480630020336016B0AA
:1021100070BD00BF8A8992070B4606D501F14702C0
:1021200001211A60C3E90421704770B582B001AB88
:102130006A460C460646FFF7BFFF00990546304643
:10214000FEF7D0FDB4F90C3070B11649B162019AB6
:102150000099206043F08003A381C4E904018AB997
:102160002B43A38102B070BD9A05FBD423F0030377
:1021700004F1470243F002030121A3812260C4E974
:102180000421EFE73046B4F90E1000F073F910B9EE
:10219000B4F90C30E4E7A38923F0030343F001030F
:1021A0001BB2DDE729090008000000000000000064
:1021B00001F0FF01102A2BDB10F0070F08D010F8F8
:1021C000013B013A8B422DD010F0070F42B3F6D1FC
:1021D000F0B441EA012141EA014122F007047FF015
:1021E00000070023F0E80256083C85EA010586EA6C
:1021F000010685FA47F5A3FA87F586FA47F6A5FAA8
:1022000087F68EB9EED1F0BC01F0FF0102F00702B3
:1022100032B110F8013B013A83EA010313B1F8D15E
:102220000020704701387047002D06BF354603383F
:10223000073815F0010F07D1013015F4807F02BF78
:10224000013015F4C03F0130F0BC0138704700BFC9
:10225000704700BF704700BF09B3F8B51446CAB154
:1022600006460D4600F018F9A04202D32F46384624
:10227000F8BD21463046FEF735FD07460028F6D06A
:1022800022462946FEF734F830462946FEF7D4FCAC
:102290003846F8BD2746FEF7CFFC3846F8BD114654
:1022A000FEF720BD70B50D46084C114606461A468D
:1022B00028460023236000F027F9431C00D070BD9E
:1022C0002368002BFBD0336070BD00BFD0B8002066
:1022D00010B580210446FEF705FD606440B1031F80
:1022E00000227C3043F8042F8342FBD1002010BD34
:1022F0004FF0FF3010BD00BF436C0BB100207047A2
:10230000E6E700BF1F2970B5054608D8436C16469E
:102310000C464BB153F8240043F8246070BD1622DC
:1023200002604FF0FF3070BDFFF7D2FF08B96B6C51
:10233000F0E74FF0FF3070BD1F2938B521D8426C4F
:1023400005460C466AB152F8213053B1012B16D024
:10235000591C10D00025204642F8245098472846A2
:1023600038BD284600F070F8224601462846BDE8F0
:10237000384000F055B816230360012038BD002016
:1023800038BD162303604FF0FF3038BD1F2921D818
:1023900038B5436C05460C4683B153F8242003EB53
:1023A00084034AB1511C10D0012A0CD000252046CC
:1023B0001D609047284638BD012038BDFFF788FFD3
:1023C00028B96B6CE9E7032038BD022038BD4FF017
:1023D000FF3038BD4FF0FF30704700BF024B014661
:1023E0001868FFF7A9BF00BF00000020024B0A4693
:1023F00001461868FFF786BF00000020034B1868ED
:10240000436C0BB10020704762E700BF0000002062
:10241000024B01461868FFF7B9BF00BF000000205B
:1024200038B50B46074C0546114618460023236075
:1024300000F05AF8431C00D038BD2368002BFBD0B5
:102440002B6038BDD0B8002000F03EB838B50B4640
:10245000074C0546114618460023236000F02CF86F
:10246000431C00D038BD2368002BFBD02B6038BD47
:10247000D0B8002038B5074C002305460846236035
:1024800000F02AF8431C00D038BD2368002BFBD095
:102490002B6038BDD0B8002051F8043C181F002B29
:1024A000BCBF0B58C0187047024B58221A604FF03F
:1024B000FF307047D0B80020024B58221A604FF00E
:1024C000FF307047D0B80020024B58221A604FF0FE
:1024D000FF307047D0B80020024B58221A6000200D
:1024E000704700BFD0B80020024B58221A604FF04E
:1024F000FF307047D0B80020024B58221A604FF0CE
:10250000FF307047D0B80020024B58221A604FF0BD
:10251000FF307047D0B80020044A05491368002BEB
:1025200008BF0B461844106018467047A0000020F2
:10253000D8B80020024B58221A604FF0FF30704785
:10254000D0B80020FEE700BF53B94AB9002908BF40
:1025500000281CBF4FF0FF314FF0FF3000F06EB984
:10256000ADF1080C6DE904CE00F006F8DDF804E0EA
:10257000DDE9022304B070472DE9F047089D0446C9
:102580008C46002B40F083808A42174647D9B2FA26
:1025900082F242B1C2F1200024FA00F0914097404B
:1025A00040EA010C94404FEA1748230CBCFBF8F6B4
:1025B0001FFA87FE08FB16C143EA014306FB0EF132
:1025C000994209D9FB1806F1FF3080F01981994230
:1025D00040F21681023E3B445B1AA4B2B3FBF8F012
:1025E00008FB103344EA034400FB0EFEA64509D95C
:1025F0003C1900F1FF3380F00581A64540F20281CD
:1026000002383C4440EA0640A4EB0E0400261DB10B
:10261000D4400023C5E900433146BDE8F08702B944
:10262000FFDEB2FA82F2002A50D1CB1B4FEA174EDE
:102630001FFA87F80126B3FBFEFC210C0EFB1C33AE
:1026400041EA034108FB0CF38B4207D979180CF1DE
:10265000FF3002D28B4200F2E9808446C91AA3B24D
:10266000B1FBFEF00EFB101143EA014408FB00F839
:10267000A04507D93C1900F1FF3302D2A04500F272
:10268000D9801846A4EB080440EA0C40BFE78B420F
:1026900009D9002D00F0B1800026C5E900013046BF
:1026A0003146BDE8F087B3FA83F6002E4AD18B425B
:1026B00002D3824200F2B880841A61EB0301012048
:1026C0008C46002DA8D0C5E9004CA5E7C2F1200337
:1026D00020FA03F6974001FA02F04FEA174ED9406C
:1026E0003043030CB1FBFEF61FFA87F80EFB161100
:1026F00043EA014306FB08F1994204FA02F409D9BE
:10270000FB1806F1FF3C80F08D80994240F28A80F0
:10271000023E3B445B1A81B2B3FBFEF00EFB10336A
:1027200041EA034100FB08F38B4207D9791800F115
:10273000FF3C73D28B4271D902383944CB1A40EA3C
:10274000064678E7C6F1200C03FA06F422FA0CF3E9
:102750001C4320FA0CF701FA06F34FEA144E21FA53
:102760000CF11F433B0CB1FBFEF91FFA84F80EFB82
:10277000191143EA014109FB08FA8A4502FA06F2F7
:1027800000FA06F308D9611809F1FF3048D28A45EA
:1027900046D9A9F102092144A1EB0A01BFB2B1FB5C
:1027A000FEF00EFB101147EA014700FB08F8B845A0
:1027B00007D9E71900F1FF312ED2B8452CD90238DC
:1027C000274440EA0940A7EB0807A0FB02894F45D0
:1027D000C64649461AD317D05DB1B3EB0E0267EB7C
:1027E000010707FA0CFCF2404CEA0202F740C5E987
:1027F000002700263146BDE8F0872E4628460BE725
:102800000646E9E61846FDE64345E5D2B8EB020E7A
:1028100069EB04010138DFE70846D2E760468DE73F
:102820008146B9E7664675E730464AE7ACF1020CE7
:10283000394413E702383C4424E700BF704700BF27
:1028400030B58DB000220B9200922D4B196B41F0E8
:1028500004011963196B01F00401009100990192C0
:10286000196B41F080011963196B01F0800101912E
:1028700001990292196B41F001011963196B01F082
:102880000101029102990392196B41F0020119634F
:10289000196B01F00201039103990492196B41F045
:1028A00008011963196B01F008010491049905925C
:1028B000196B41F040011963196B01F0400105915A
:1028C00005990692196B41F0100119631B6B03F017
:1028D00010030693069B4FF47C530793012508953C
:1028E00009920A92074C07A9204601F0FBFB2A46F1
:1028F0004FF40051204601F0E7FC0DB030BD00BFA1
:10290000003802400010024070B5ADF5856D464CB0
:1029100001224FF48051204601F0D6FC434D322372
:102920000D224349284601F0FCFE00F025F9012262
:102930004FF40061204601F0C7FC00220121022073
:1029400005F00EFE064601224FF48061204601F09C
:10295000BBFC32230D223749284601F0E2FE002E4F
:1029600049DB0020CDF81804CDF81C04CDF8200474
:10297000CDF8240402238DF8193410248DF818445E
:1029800007F0D7F8CDF81C04172007F0CDF8ADF804
:102990001A0422460DF58361304605F00FFC00282D
:1029A00026DB01224FF400711F4801F08DFC322319
:1029B0000D2221491D4801F0B4FE1421304605F0D6
:1029C00077FCD8B91023019300224FF40051164828
:1029D00001F07AFC32230D221849144801F0A1FEBF
:1029E00001AA02A9304605F02DFB051E0CDCE9E723
:1029F000304605F025FC0DF5856D70BD304605F0BF
:102A00001FFCF8E7002CDDDD00234FF4806206A9EF
:102A1000284605F0DBFC041EF4DD0023224606A94F
:102A2000284605F05DFDEDE700100240A04B0020B8
:102A3000BC270108CC270108DC270108EC27010886
:102A4000FEE7000008B50A480A4B03604FF4E13383
:102A5000436000238360C36003610C224261836191
:102A6000C36101F02FFE00B908BDFFF7E9FF00BF09
:102A7000A04B00200048004000B595B03022002156
:102A800008A8FDF737FD00230393049305930693ED
:102A900007930193204A116C41F080511164126C2C
:102AA00002F080520192019A02931C4B1A6842F480
:102AB00040421A601B6803F440430293029B0123C7
:102AC00008934FF4A023099302230E934FF480023E
:102AD0000F9204221092A8221192129307231393AB
:102AE00008A800F0CDFF98B90F23039302230493A5
:102AF000002305934FF4A05306934FF4805307939C
:102B0000052103A801F018FA20B915B05DF804FBFF
:102B1000FFF796FFFFF794FF003802400070004077
:102B200008B5114A136843F48033136001E0BFF322
:102B30006F8F0D4B1B6813F4003FF8D0BFF34F8F1E
:102B400001F058FCFFF798FFFFF77AFEFFF77AFFD6
:102B500003F04CFC054A0021054803F09FFC054B9F
:102B6000186003F061FCFEE7003802400828010805
:102B7000092900089C4B002030B599B00021084677
:102B800006F080FF1F49204B0B60204A4FF6FF7371
:102B900013601F4B00251D601E4C1F4802901F48EC
:102BA00001900095204608F05BFE179517AA0121B9
:102BB0001B4800F0A1FD0090179B1A4A462105A86A
:102BC000FDF7D8FD05A8FDF71BFE322382B205A94B
:102BD000154801F0A6FD204608F0D4FE94F82D30EB
:102BE00013F0040F0AD0204608F0D2FE084B074A23
:102BF0000449084808F0FEFD19B030BD054808F04A
:102C0000E5FEF3E71C500020C0A80064205000201F
:102C100024500020E84F0020E19900087930000896
:102C2000F86800202C280108A04B00202DE9F0476F
:102C3000334800F0CDFC00285ED1314B998FD3F89A
:102C4000408079B94FF0000A2D4B1B6B00212C4AB4
:102C5000926B8A423BD91A6842F000421A60DB68E4
:102C60000131F4E74FF4C1720AF018FB82460028E4
:102C7000EAD0234B1F6B8146002421E0D9F80400E1
:102C8000C4F5BE62043208EB04013044FDF730FBAA
:102C9000FF68D7F80880A5F2F452361B06F2F45606
:102CA0000024A51840F2F4539D42E7D8D9F8040057
:102CB00008EB04013044FDF71BFBD9F800902C46CB
:102CC000B9F1000FC0D0B9F80A200026E9E70C4B93
:102CD00000229A631B6841F214029A5812F0800F86
:102CE00007D041F214028021995041F208020021DC
:102CF00099505046BDE8F0874FF0000AF9E700BF51
:102D0000F868002038B505464FF0FF310E4B1868C3
:102D100003F064FD0028F7D107E020460AF056FAD8
:102D20000A480FF0B4FC002CEED008480FF0A8FCC5
:102D30002846FFF77BFF04460028F1D02B6929467F
:102D400098470028ECD0E8E7A40000205481002038
:102D50002DE9F84F8B462C4BDE6AD6F808A00024EC
:102D60002746BBF1000F32D03368002B35DBBBF8B0
:102D70000A90002504EB090840F2F453984519D94C
:102D8000DBF80410C4F5BE62043229440AEB0400E7
:102D9000FDF7AEFAF6683368002B21DBD6F808A001
:102DA000A8F2F4592D1B05F2F4553F1B07F2F45716
:102DB0000024DFE7DBF804104A4629440AEB04004C
:102DC000FDF796FA4F44DBF800B04446C9E73946B0
:102DD0000D4800F06DFB002004E06FF0070001E0FB
:102DE0006FF00700084B1B6841F214029A5812F06A
:102DF000200F07D041F214022021995041F2040221
:102E000000219950BDE8F88FF868002030B58DB0EA
:102E1000044600230B933F483F4A02600122426070
:102E200003828DF8003080218DF80110E1218DF8AA
:102E300002108DF803308DF804308DF80530C0F89D
:102E400014D08261C3614FF40003036200F0CAFC36
:102E500028B994F82D3043F0040384F82D302D4D1B
:102E600004232E4A2E49284600F0B0FA04232D4AA6
:102E70002D49284600F0E4FA062384F82C306B69CB
:102E80001A7884F826205A7884F827209A7884F8CB
:102E90002820DA7884F829201A7984F82A205B79A6
:102EA00084F82B3040F2DC53A38494F82D3043F0A7
:102EB0000A0384F82D3000220121084603F026FC85
:102EC0001A4B18602022002103A8FDF713FB184BB2
:102ED00002934FF4AF7307933023089302AA21465D
:102EE000144803F0DBFA284600F0A8FD0BAA1D21C8
:102EF000284600F001FC0B9A42F00B020B921D21B8
:102F0000284600F035FC0BAA1D21284600F0F4FBF2
:102F10000DB030BDF86800200080024040690020FC
:102F200028500020A850002078680020A40000202D
:102F300044280108052D0008F0B58DB00023079343
:102F4000089309930A930B930268424B9A4201D06B
:102F50000DB0F0BD00240094A3F590431A6B42F02D
:102F600000721A631A6B02F000720092009A0194C8
:102F70001A6B42F080621A631A6B02F0806201924F
:102F8000019A02941A6B42F000621A631A6B02F003
:102F900000620292029A03941A6B42F004021A63CE
:102FA0001A6B02F004020392039A04941A6B42F023
:102FB00001021A631A6B02F001020492049A05944A
:102FC0001A6B42F002021A631A6B02F002020592B7
:102FD000059A06941A6B42F040021A631B6B03F0C9
:102FE00040030693069B3223079302270897099410
:102FF00003260A960B250B9507A9174801F072F8CE
:1030000086230793089709940A960B9507A91348F6
:1030100001F068F84FF400530793089709940A9653
:103020000B9507A90E4801F05DF84FF42053079364
:10303000089709940A960B9507A90A4801F052F8D7
:10304000224605213D2001F057F93D2001F088F985
:103050007EE700BF008002400008024000000240FE
:10306000000402400018024008B5024B186803F043
:10307000F9FB08BDA400002010B5044670B173230D
:1030800084F82E30742384F82F30084B6361084B8A
:10309000A3612046FFF7BAFE002010BD054B40F2A9
:1030A0003A2205490548FDF78DFAE8E7A92301080A
:1030B000512D00084C2801086028010870280108DB
:1030C00008B501F0BDF908BD7047FEE7FEE7FEE771
:1030D000FEE7704708B501F0A7F902F059FE012894
:1030E00000D108BD03F056FFFBE7000008B5024819
:1030F00000F0BCFA08BD00BFF868002000B583B03E
:10310000002200920D4B596C41F480415964596C76
:1031100001F48041009100990192196C41F08051B5
:1031200019641B6C03F080530193019B0F216FF016
:10313000010001F0E1F803B05DF804FB0038024043
:1031400000B589B000230393049305930693079376
:103150000268164B9A4202D009B05DF804FB0022C7
:10316000019203F5F833196C41F480211964196C4C
:1031700001F48021019101990292196B41F008013B
:1031800019631B6B03F008030293029B4FF4407317
:1031900003930223049305920323069307230793C3
:1031A00003A9034800F09EFFD6E700BF0048004097
:1031B000000C02405079137943EA002307480B5072
:1031C000D07893781B0443EA0063507843EA0023E5
:1031D00012781343024A8B50704700BF4080024070
:1031E00044800240016841F218028B5843F40053B6
:1031F0008B507047016841F218028B5843F002036C
:103200008B50704782B0084B1B68084AA2FB03230F
:103210005B0A00FB03F3019300BF019B5A1E01925E
:10322000002BF9D102B070476C000020D34D621022
:1032300010B582B00446002301930268136843F07E
:103240000803136003681B6801930120FFF7DAFF8E
:103250002368019A1A6002B010BD10B582B004460E
:10326000002301930268136843F0040313600368AA
:103270001B6801930120FFF7C5FF2368019A1A60BC
:1032800002B010BD30B583B004460023019302683C
:1032900041F21805535943F48013535103685B59A5
:1032A00001930120FFF7AEFF2368019A5A5103B042
:1032B00030BD000070B59EB0044629B14FF40063E4
:1032C000C3604FF480438360E369002B6AD14FF4FD
:1032D0008063079321680B68394A1A40A368E06845
:1032E00003430798034343F4007313430B602368BD
:1032F0001D68012001F0AAF823681D6023684022A0
:103300005A6023685D68012001F0A0F823685D60C1
:10331000236800259D602368DD602268936923F09F
:10332000BE031B041B0C43F08003936123689E695A
:10333000012001F08BF823689E612368DD6123681A
:10334000DD69012001F082F82368DD61226841F225
:10335000180551591B4B0B4043F0087343F004030D
:10336000535123685E59012001F070F823685E51C3
:10337000236803F58053144A1A60236803F58053C9
:103380001D68012001F062F8236803F580531D6079
:10339000A369012B09D0626900212046FFF70AFFCB
:1033A0001EB070BD0023079394E7216841F21C0210
:1033B0008B5843F4803343F040038B50EBE700BF5E
:1033C0000F8120FF233FDEF88020C102F0B490F887
:1033D0004540012C32D0012480F84540022480F879
:1033E0004440C162002401E0F16001349C4218D2E3
:1033F000670101EB44164FF48015CD5140F2F455AE
:1034000005FB0425B560C5691DB9CD5945F44005D6
:10341000CD515D1EA542E7D9651C01EB4515F56050
:10342000E3E7026841F21003D150012380F84430F1
:10343000002380F845301846F0BC70470220FBE7B7
:10344000F0B490F84540012C2FD0012480F845407D
:10345000022480F844408162002401E0E9600134E4
:103460009C4215D2660101EB44154FF000478F5185
:1034700044F2F4566E6040F2F45606FB0426AE6049
:103480005E1EA642EAD9661C01EB4616EE60E6E730
:10349000026841F20C03D150012380F8443000232C
:1034A00080F845301846F0BC70470220FBE700006A
:1034B00090F84530012B00F08580012380F84530DD
:1034C000022380F84430B1B1C36A1A68002A1ADBBB
:1034D00030B440F2F45291421DD93B4CA4FB01247C
:1034E000A40A40F2F45202FB141202B10134012C7E
:1034F00011D0002348E0012380F84430002280F8F6
:10350000452018467047122380F84430002380F885
:103510004530012070471A6842F040521A60C36A71
:10352000C1F30C015960C26A136843F00043136091
:10353000C36ADB68C362036841F214029A5812F04E
:10354000040F08D041F2140204219950026841F29C
:1035500004030021D150012380F84430002380F877
:103560004530184630BC7047C26A40F2F455556089
:10357000621E9A4217D0C56A2A6842F000422A6049
:10358000C26AD268C26201339C42D4D9C56A2A6831
:1035900022F040522A60002BE6D1C56A2A6842F028
:1035A00080522A60E0E7C56A2A6842F000522A6029
:1035B000064A02FB041202F2F452C56AC2F30C027C
:1035C0006A60D8E7022070470BB002AC0CFAFFFF2C
:1035D00090F84530012B45D0012380F84530022377
:1035E00080F84430002104E0036301228263DB6839
:1035F0008362836A1A68002A2CDB03292AD80131E6
:103600001A6802F44072B2F5007FEDD01A6812F425
:10361000407F05D1826B01328263DB688362E8E719
:103620004363826B01328263012A11D01A68C2F3AC
:103630000D42043AC263026B92680264DB688362E3
:10364000012380F84430002380F845301846704745
:103650000363EBE7012380F84430002280F8452023
:1036600018467047022070477047704710B50446EF
:10367000036841F214029A5812F0400F11D141F23E
:1036800014029B5813F0010F19D1226841F2140360
:103690004FF48031D1502268D35813F4004F1BD11E
:1036A00010BDFFF7E1FC226841F214034021D15024
:1036B000012384F84430002384F84530E5E7FFF720
:1036C000D3FF2168012341F214028B5084F8443067
:1036D000002384F84530D8E72046FFF7C6FF22686C
:1036E00041F214034FF40041D150012384F84430D7
:1036F000002384F84530D3E7F8B590F84430DBB2C6
:10370000822B33D005461646822380F84430006869
:10371000026902F01C022B8ADB029BB213438C016C
:1037200004F4F8641C4344F00104046100F088FED2
:10373000074614F0010F10D000F082FEC31BB3F552
:10374000803F02D22B681C69F3E7012385F84430DF
:10375000002385F84530032007E02B685B699BB2A6
:103760003360012385F844300020F8BD0220FCE7D7
:1037700090F84430DBB2422B32D070B5054642237C
:1037800080F844300668306900F01C002B8ADB02A8
:103790009BB203438C0104F4F8641C4344F003041B
:1037A00092B272612B681C6100F04AFE064614F06A
:1037B000010F10D000F044FE831BB3F5803F02D20E
:1037C0002B681C69F3E7012385F84430002385F852
:1037D0004530032003E0012385F84430002070BD0C
:1037E0000220704770B582B000230193002800F0DA
:1037F0000E81044690F84430002B34D0002300930F
:10380000844B5A6C42F480425A645B6C03F48043EC
:103810000093009B804B5A6822F400025A605A6859
:10382000216A0A435A60236803F580531A6842F0FC
:1038300001021A6000F004FE0546236803F5805279
:10384000126812F0010F13D000F0FAFD401BB0F522
:10385000FA7FF2D9032584F84450002384F84530D8
:10386000284602B070BD80F84530FFF765FBC5E71C
:103870001D6925F01C0500F00FFC684B0344684AE5
:10388000934255D245F0080523681D614FF400426C
:1038900000212046FFF76CFF0546002860D1FF207D
:1038A00000F0D4FD6368002B00F0918000F0C8FDAB
:1038B000064601AA01212046FFF71EFF00F0C0FDC9
:1038C000801B41F28833984252D8019B13F0040FB9
:1038D000EFD04FF4805200212046FFF749FF002827
:1038E00052D100F0ADFD064601AA01212046FFF7A6
:1038F00003FF00F0A5FD801B41F2883398424BD8AE
:10390000019B13F0200FEFD001AA1F212046FFF7E3
:10391000F3FE00284CD1019B13F0100F50D04FF450
:103920000062E26013F0040F4DD00023A3605EE05C
:103930003C4B03443C4A934202D845F00C05A3E7B4
:103940003A4B03443A4A93429ED33A4B03443A4A91
:10395000934202D845F0040596E745F0100593E739
:1039600001212046FFF7A6FC012584F8445077E7A3
:1039700001212046FFF79EFC012384F844300023F8
:1039800084F8453003256BE701212046FFF792FCC0
:10399000012584F8445063E701212046FFF78AFCA3
:1039A000012384F84430002384F84530032557E789
:1039B00001212046FFF77EFC012584F844504FE7A3
:1039C0000022E260AEE74FF48043A3600FE0E268BC
:1039D000C2F3CF02A368C3F34F031A43002120466A
:1039E000FFF7C6FE58B940F6FF7000F02FFD00212A
:1039F0002046FFF75FFC012384F8443030E70121C3
:103A00002046FFF757FC012584F8445028E701259C
:103A100026E700BF003802400038014000D3CEFE48
:103A2000C0E1E40040F1E9FD3F787D0100796CFCE4
:103A3000005A6202001F0AFA7FF0FA0238B590F8C5
:103A40004530012B1AD00446012580F84550022349
:103A500080F84430FFF7ECFB2046FFF7FEFB2046E2
:103A6000FFF710FC2046FFF7BDFB2046FFF7C2FB27
:103A700084F84450002084F8450038BD0220FCE75B
:103A8000002800F0D98170B582B00446036813F0B5
:103A9000010F3BD0A64B9B6803F00C03042B2CD0EA
:103AA000A34B9B6803F00C03082B21D06368B3F58C
:103AB000803F4FD0B3F5A02F52D09D4B1A6822F40F
:103AC00080321A601A6822F480221A606368002B20
:103AD00050D000F0B5FC0546954B1B6813F4003F31
:103AE00014D100F0ADFC401B6428F5D90320AAE1F5
:103AF0008F4B5B6813F4800FD8D08D4B1B6813F489
:103B0000003F03D06368002B00F09881236813F016
:103B1000020F54D0864B9B6813F00C0F3ED0844BA1
:103B20009B6803F00C03082B33D0E368002B67D0AD
:103B3000804B01221A6000F083FC05467C4B1B6819
:103B400013F0020F53D100F07BFC401B0228F5D983
:103B5000032078E1764A136843F480331360B5E7B5
:103B6000734B1A6842F480221A601A6842F4803259
:103B70001A60ABE700F064FC05466D4B1B6813F45C
:103B8000003FC3D000F05CFC401B6428F5D9032043
:103B900059E1674B5B6813F4800FC6D1644B1B6817
:103BA00013F0020F03D0E368012B40F04981604A13
:103BB000136823F0F803216943EAC1031360236803
:103BC00013F0080F40D0636963B35B4B01221A60A6
:103BD00000F036FC0546564B5B6F13F0020F33D1F5
:103BE00000F02EFC401B0228F5D903202BE1504A9F
:103BF000136823F0F803216943EAC1031360DEE789
:103C00004C4B00221A6000F01BFC0546484B1B6819
:103C100013F0020FD3D000F013FC401B0228F5D99B
:103C2000032010E1444B00221A6000F009FC054615
:103C30003F4B5B6F13F0020F06D000F001FC401BFE
:103C40000228F5D90320FEE0236813F0040F78D092
:103C5000374B1B6C13F0805F0DD100230193344B65
:103C60001A6C42F080521A641B6C03F0805301936B
:103C7000019B012500E00025304B1B6813F4807F79
:103C800021D0A368012B32D0052B36D0284B1A6FD8
:103C900022F001021A671A6F22F004021A67A36861
:103CA000002B34D000F0CCFB0646214B1B6F13F0E9
:103CB000020F45D100F0C4FB801B41F288339842CB
:103CC000F3D90320BFE01D4A136843F480731360E7
:103CD00000F0B6FB0646194B1B6813F4807FD0D169
:103CE00000F0AEFB801B0228F5D90320ABE0104AA0
:103CF000136F43F001031367D1E70D4B1A6F42F0C6
:103D000004021A671A6F42F001021A67C7E700F04F
:103D100097FB0646064B1B6F13F0020F10D000F006
:103D20008FFB801B41F288339842F3D903208AE04D
:103D30000038024000004742800E474200700040B9
:103D4000E5B9A369002B7DD0464A926802F00C02C7
:103D5000082A51D0022B17D0434B00221A6000F0E2
:103D60006FFB04463F4B1B6813F0007F42D000F00E
:103D700067FB001B0228F5D9032064E0394A136C65
:103D800023F080531364DCE7374B00221A6000F005
:103D900057FB0546334B1B6813F0007F06D000F03D
:103DA0004FFB401B0228F5D903204CE0E369226A4F
:103DB0001343626A43EA8213A26A5208013A43EA51
:103DC0000243E26A43EA0263264A5360264B012219
:103DD0001A6000F035FB0446224B1B6813F0007F8D
:103DE00006D100F02DFB001B0228F5D903202AE0A4
:103DF000002028E0002026E0012B26D0194B5B682C
:103E000003F48001E269914221D103F03F02216A6B
:103E10008A421ED1616A47F6C0721A408A421AD19C
:103E200003F44032A16A8A4217D103F07063E26A58
:103E3000934214D1002006E001207047012002E0E7
:103E4000012000E0002002B070BD0120FBE701204E
:103E5000F9E70120F7E70120F5E70120F3E701206A
:103E6000F1E700BF0038024060004742F8B52F4B31
:103E70009B6803F00C03042B53D0082B53D12B4B1E
:103E80005A6802F03F025B6813F4800F28D0274B7A
:103E90005B68C3F3881358010021C01A61F1000167
:103EA0008E0146EA906687013C1A66EB0105E9003F
:103EB00041EA5471E000C01841F100014B0243EAAD
:103EC000D0534402204619460023FEF73DFB174B12
:103ED0005B68C3F3014301335B00B0FBF3F023E005
:103EE000124B5B68C3F388135C010025E41A65F18B
:103EF0000005AE0146EA9466A701381B66EB050192
:103F0000CC0044EA5074C500E81844F100018B026B
:103F100043EA90538402204619460023FEF714FB1F
:103F2000D5E7034800E00348F8BD00BF0038024071
:103F300000127A000024F400002800F09B8070B585
:103F40000D4604464F4B1B6803F00F038B4208D20B
:103F5000CBB24C4A1370136803F00F038B4240F04E
:103F60008B80236813F0020F17D013F0040F04D0D6
:103F7000454A936843F4E0539360236813F0080FB5
:103F800004D0414A936843F4604393603E4A936887
:103F900023F0F003A1680B439360236813F0010F33
:103FA00032D06368012B21D09A1E012A25D9364AC6
:103FB000126812F0020F61D033498A6822F00302BE
:103FC00013438B6000F03CFA06462F4B9B6803F0CE
:103FD0000C036268B3EB820F16D000F031FA801B3D
:103FE00041F288339842F0D9032042E0264A126811
:103FF00012F4003FE0D101203BE0234A126812F0A6
:10400000007FD9D1012034E01E4B1B6803F00F0361
:10401000AB4207D9EAB21B4B1A701B6803F00F03BF
:10402000AB422DD1236813F0040F06D0164A9368D3
:1040300023F4E053E1680B439360236813F0080F07
:1040400007D0114A936823F46043216943EAC1030E
:104050009360FFF70BFF0C4B9B68C3F303130B4AF2
:10406000D35CD8400A4B18600A4B186800F09CF9E2
:10407000002070BD012070470120FAE70120F8E719
:104080000120F6E7003C0240003802409828010871
:104090006C00002068000020014B1868704700BFCA
:1040A0006C00002008B5FFF7F7FF044B9B68C3F3D3
:1040B0008223034AD35CD84008BD00BF00380240C9
:1040C000A828010808B5FFF7E7FF044B9B68C3F376
:1040D0004233034AD35CD84008BD00BF00380240D9
:1040E000A828010800230F2B00F2E580F0B583B06B
:1040F00039E0092200E00022B2403A4302346E4E19
:1041000046F824206D4A1468EA4324EA05064F68FD
:1041100017F4803F01D045EA0406684C26606468C5
:1041200002EA04064F6817F4003F01D045EA04068E
:10413000624C6660A46802EA04064F6817F4801FA8
:1041400001D045EA04065D4CA660E46822404E6852
:1041500016F4001F01D045EA0402584CE260013316
:104160000F2B00F2A68001229A400C6804EA020597
:1041700032EA0404F3D14C68661E012E03D9112CD7
:1041800001D0122C12D186685F000324BC4026EABD
:104190000406CC68BC4034438460466826EA0206C4
:1041A0004C68C4F300129A4032434260C7685E0014
:1041B0000324B440E24327EA04078C68B4403C433C
:1041C000C4604C68022C01D0122C13D1DF080837D0
:1041D00050F827E003F007044FEA840C0F2404FA98
:1041E0000CF42EEA040E0C6904FA0CF444EA0E04F2
:1041F00040F82740046814404A6802F00302B240C5
:10420000224302604A6812F0805FA8D00022019227
:104210002B4A546C44F480445464526C02F480423F
:104220000192019A9C08A61C234A52F8267003F0BA
:10423000030296000F22B24027EA0207214A904269
:104240003FF459AF02F58062904222D002F58062BD
:10425000904220D002F5806290421ED002F580622A
:1042600090421CD002F5806290421AD002F5806222
:10427000904218D002F58062904216D002F580621A
:10428000904214D002F5806290423FF432AF0A228D
:1042900032E7012230E702222EE703222CE7042234
:1042A0002AE7052228E7062226E7072224E7082234
:1042B00022E703B0F0BD704700380140003C0140E8
:1042C00000380240000002400AB1816170470904D1
:1042D00081617047074AD36823F4E0631B041B0C19
:1042E000000200F4E060034343F0BF6343F4003393
:1042F000D360704700ED00E030B4174BDB68C3F3C8
:104300000223C3F10704042C28BF04241D1D062D1D
:1043100018D9033B4FF0FF3505FA04F421EA0401F4
:10432000994005FA03F322EA0303194300280BDB43
:104330000901C9B200F1604000F5614080F8001346
:1043400030BC70470023E5E700F00F000901C9B257
:10435000024B1954F4E700BF00ED00E014ED00E05B
:10436000002807DB00F01F02400901239340024AA6
:1043700042F82030704700BF00E100E00138B0F1A2
:10438000807F0AD2064B5860064AF02182F823103B
:104390000020986007221A6070470120704700BF14
:1043A00010E000E000ED00E010B504460E4B187878
:1043B0004FF47A73B3FBF0F30C4A1068B0FBF3F0E0
:1043C000FFF7DCFF68B90F2C01D901200AE00022B9
:1043D00021464FF0FF30FFF78FFF054B1C60002098
:1043E00000E0012010BD00BF640000206C00002030
:1043F0006800002008B50B4B1A6842F400721A607E
:104400001A6842F480621A601A6842F480721A6074
:104410000320FFF75FFF0F20FFF7C6FFFEF76EFEDA
:10442000002008BD003C0240034A1168034B1B7882
:104430000B441360704700BF10810020640000200F
:10444000014B1868704700BF1081002038B5044642
:10445000FFF7F6FF0546B4F1FF3F02D0044B1B788F
:104460001C44FFF7EDFF401BA042FAD338BD00BF4C
:104470006400002070B504460268136923F44053B9
:10448000C1680B4313618368026913434269134394
:10449000C2691A430168CB6823F4164323F00C0366
:1044A0001343CB600268536923F4407381690B4363
:1044B0005361C369B3F5004F36D00368654A934230
:1044C00000F09A8002F58062934200F09580FFF739
:1044D000E9FD0026051846EB06012D1846EB010103
:1044E000CB0043EA5573EA001546194663689A0003
:1044F0009B0F281846EB0101FEF726F8564DA5FB49
:1045000000325109642303FB11031B013233A5FB65
:1045100003235B0903F0F00202EB011203F00F0327
:10452000216813448B6093E003684A4A934233D076
:1045300002F5806293422FD0FFF7B4FD00260518E4
:1045400046EB06012D1846EB0101CB0043EA5573FB
:10455000EA001546194662683346921846EB030393
:10456000281846EB0101FDF7EFFF3B4DA5FB00329C
:104570005109642303FB1103DB003233A5FB032342
:104580005B095A0002F4F87202EB011203F0070310
:10459000216813448B605BE0FFF794FD002605184B
:1045A00046EB06012D1846EB0101CB0043EA55739B
:1045B000EA001546194662683346921846EB030333
:1045C000281846EB0101FDF7BFFF234DA5FB003284
:1045D0005109642303FB1103DB003233A5FB0323E2
:1045E0005B095A0002F4F87202EB011203F00703B0
:1045F000216813448B602BE0FFF764FD002605184B
:1046000046EB06012D1846EB0101CB0043EA55733A
:10461000EA001546194663689A009B0F281846EB76
:104620000101FDF791FF0C4DA5FB003251096423F8
:1046300003FB11031B013233A5FB03235B0903F0CA
:10464000F00202EB011203F00F03216813448B60A8
:1046500070BD00BF001001401F85EB512DE9F843EC
:1046600005460F4616469946DDF820802C682468DA
:1046700037EA04030CBF01240024B4421FD1B8F16F
:10468000FF3FF3D0B8F1000F05D0FFF7D9FEA0EB44
:1046900009004045EAD92A68D36823F4D073D3606F
:1046A0002A68536923F001035361202385F83930C8
:1046B00085F83A30002385F83830032000E00020E8
:1046C000BDE8F88358B310B5044690F839300BB301
:1046D000242384F839302268D36823F40053D3604C
:1046E0002046FFF7C7FE2268136923F49043136145
:1046F0002268536923F02A0353612268D36843F484
:104700000053D3600020E063202384F8393084F81C
:104710003A3010BD80F83830FEF712FDD8E701209E
:1047200070472DE9F04383B01E4690F83930DBB274
:10473000202B59D104460D469046002958D0002A16
:1047400058D090F83830012B56D0012380F83830FB
:104750004FF00009C0F83C90212380F83930FFF772
:104760006FFE0746A4F82480A4F8268084F83890C9
:1047700017E000963B46002280212046FFF76EFF9F
:1047800000283BD12B882268C3F3080353602369B8
:104790000BB9023505E0013503E015F8012B23685C
:1047A0005A60E38C9BB29BB1E28C92B2013A92B216
:1047B000E284A368B3F5805FDBD000963B4600221D
:1047C00080212046FFF74AFF0028E6D003200CE0B6
:1047D00000963B46002240212046FFF73FFF78B974
:1047E000202384F8393000E0022003B0BDE8F083D4
:1047F0000120FAE70120F8E70220F6E70320F4E7BA
:104800000320F2E7054BD3F8882042F47002C3F886
:1048100088204FF000629A60704700BF00ED00E012
:1048200000F1080343604FF0FF328260C360036110
:1048300000230360704700230361704743684B60A7
:104840009A688A6051609960086103680133036067
:10485000704730B40D68B5F1FF3F11D000F1080387
:104860001C465B681A68AA42FAD963684B60996073
:104870008C606160086103680133036030BC70477D
:104880000469F2E70369416882688A60416851609F
:104890005A68824206D0002202611A68013A1A6000
:1048A0001868704782685A60F5E70346406A18B195
:1048B0001B6B1868C0F13800704710B5044602F051
:1048C000F9FAA26BE36B9A4204D0002402F014FBC5
:1048D000204610BD0124F9E710B5044602F0EAFABB
:1048E000A36B23B9012402F007FB204610BD00246E
:1048F000F9E770B504461546866B026C5AB9036831
:104900001BB100200136A66370BD806801F09CFADF
:104910000023A360F6E76DB94068FBF7E9FC226C61
:10492000636813446360A268934219D32368636089
:104930002846E7E7C068FBF7DBFC226C5142E368DE
:104940009B1AE3602268934202D2A3680B44E3609F
:10495000022D01D00020D5E726B1013E0020D1E78D
:104960002846CFE70020CDE70346026C6AB110B5B8
:104970000846D9681144D9609C68A14201D31968DE
:10498000D960D968FBF7B4FC10BD704738B505464F
:1049900002F090FA95F8454064B203E001F0ECF9BA
:1049A000013C64B2002C08DD6B6A33B105F12400D0
:1049B00001F04EF90028F3D0F0E7FF2385F84530E9
:1049C00002F09AFA02F076FA95F8444064B203E0F5
:1049D00001F0D2F9013C64B2002C08DD2B6933B13F
:1049E00005F1100001F034F90028F3D0F0E7FF23BF
:1049F00085F8443002F080FA38BD000038B5E0B1E7
:104A00000D46044602F056FA2168E26B236C03FB64
:104A10000210A0600020A0636160013A02FB031352
:104A2000E360FF2384F8443084F84530EDB923690E
:104A300063B902F061FA012038BD4FF0500383F3EF
:104A40001188BFF36F8FBFF34F8FFEE704F11000A3
:104A500001F0FEF80028ECD0084B4FF080521A60AD
:104A6000BFF34F8FBFF36F8FE3E704F11000FFF741
:104A7000D7FE04F12400FFF7D3FEDAE704ED00E0EF
:104A800038B51D46049C0B4649B92460E063236495
:104A900001212046FFF7B2FF84F84C5038BD226058
:104AA000F4E740B94FF0500383F31188BFF36F8FE1
:104AB000BFF34F8FFEE730B585B01C46054653B1B6
:104AC00092B189B94FF0500383F31188BFF36F8F10
:104AD000BFF34F8FFEE74FF0500383F31188BFF30E
:104AE0006F8FBFF34F8FFEE76AB150230393039B91
:104AF000502B13D04FF0500383F31188BFF36F8F07
:104B0000BFF34F8FFEE70029EFD04FF0500383F340
:104B10001188BFF36F8FBFF34F8FFEE7039B012315
:104B200084F8463000949DF820302846FFF7A8FF0F
:104B3000204605B030BD40B94FF0500383F31188D3
:104B4000BFF36F8FBFF34F8FFEE7F0B583B00C4616
:104B500016460746A1B101FB00F0503002F090F874
:104B6000054650B1002380F846300090334600F1EE
:104B7000500221463846FFF783FF284603B0F0BDB8
:104B80000846EAE730B583B040B94FF0500383F3ED
:104B90001188BFF36F8FBFF34F8FFEE70C461346AC
:104BA000884208D24FF0500383F31188BFF36F8F10
:104BB000BFF34F8FFEE70222009200221146FFF75B
:104BC00070FF034600B18463184603B030BD40B99E
:104BD0004FF0500383F31188BFF36F8FBFF34F8FF4
:104BE000FEE710B50C46884208D24FF0500383F31D
:104BF0001188BFF36F8FBFF34F8FFEE702220021B2
:104C0000FFF799FF034600B18463184610BD00000A
:104C1000F0B585B0019288B10E461D460446B1B18B
:104C2000022D20D1E36B012B1DD04FF0500383F3F5
:104C30001188BFF36F8FBFF34F8FFEE74FF0500324
:104C400083F31188BFF36F8FBFF34F8FFEE7036CC1
:104C5000002BE5D04FF0500383F31188BFF36F8F23
:104C6000BFF34F8FFEE701F093F8074658B9019B59
:104C7000002B44D04FF0500383F31188BFF36F8FA4
:104C8000BFF34F8FFEE7002739E02A463146204622
:104C9000FFF72FFE626A6AB938B13C4B4FF0805281
:104CA0001A60BFF34F8FBFF36F8F02F025F9012019
:104CB00005B0F0BD04F1240000F0CAFF0028F4D0D4
:104CC000324B4FF080521A60BFF34F8FBFF36F8F9C
:104CD000EBE702F011F90020EAE702A800F0FEFF7E
:104CE000012719E0002384F8443021E0002384F8F0
:104CF000453023E02046FFF749FE00F0ADFE02F00C
:104D0000D9F8A26BE36B9A42BFD3022DBDD0019BB1
:104D1000002BDED0002FE0D002F0EEF800F0FAFD1C
:104D200002F0C8F894F844305BB2B3F1FF3FD9D039
:104D300094F845305BB2B3F1FF3FD7D002F0DCF816
:104D400001A902A800F0D6FFC8B92046FFF7B5FDBB
:104D50000028CFD0019904F1100000F045FF204653
:104D6000FFF714FE00F078FE0028C8D1074B4FF083
:104D700080521A60BFF34F8FBFF36F8FBFE720469B
:104D8000FFF704FE00F068FE002091E704ED00E06C
:104D900048B110B5002181600160C1600B460A4630
:104DA000FFF736FF10BD704710B502460021012005
:104DB000FFF7C1FE0446FFF7EBFF204610BD10B51C
:104DC00082B00B460090002211460120FFF769FED9
:104DD0000446FFF7DDFF204602B010BD38B538B1FC
:104DE0000446856800F0CEFF85420AD0002038BD19
:104DF0004FF0500383F31188BFF36F8FBFF34F8FD2
:104E0000FEE7E368013BE3600BB10120EFE71A46E0
:104E100019462046FFF7FCFE0120E8E72DE9F8439C
:104E200090B1894690461F460446B1B1022F20D169
:104E3000E36B012B1DD04FF0500383F31188BFF3B8
:104E40006F8FBFF34F8FFEE74FF0500383F311884E
:104E5000BFF36F8FBFF34F8FFEE7036C002BE5D0DE
:104E60004FF0500383F31188BFF36F8FBFF34F8F61
:104E7000FEE702F049F9EFF311864FF0500383F398
:104E80001188BFF36F8FBFF34F8FA26BE36B9A4212
:104E900006D3022F04D0002086F31188BDE8F883E2
:104EA00094F845506DB23A4649462046FFF721FD39
:104EB000B5F1FF3F05D06B1C5BB284F84530012093
:104EC000EAE7636A0BB90120E6E704F1240000F089
:104ED000BFFE30B1B8F1000F05D00120C8F80000C6
:104EE000DAE70120D8E70120D6E768B170B50E46B1
:104EF0000446036C8BB14FF0500383F31188BFF36A
:104F00006F8FBFF34F8FFEE74FF0500383F311888D
:104F1000BFF36F8FBFF34F8FFEE70368EBB102F073
:104F2000F3F8EFF311854FF0500383F31188BFF3CB
:104F30006F8FBFF34F8FA26BE36B934226D994F828
:104F400045305BB20132A263B3F1FF3F11D00133B0
:104F50005BB284F84530012019E08368002BDED075
:104F60004FF0500383F31188BFF36F8FBFF34F8F60
:104F7000FEE7636A0BB9012009E004F1240000F0A8
:104F800067FE38B146B10120306000E0002085F3B3
:104F9000118870BD0120FAE70120F8E7F0B585B06F
:104FA000019290B10E460446C1B100F0F1FE0746F1
:104FB00000BB019B002B5CD04FF0500383F31188A2
:104FC000BFF36F8FBFF34F8FFEE74FF0500383F3B4
:104FD0001188BFF36F8FBFF34F8FFEE7036C002B79
:104FE000E3D04FF0500383F31188BFF36F8FBFF30B
:104FF0004F8FFEE700273CE031462046FFF7B4FC28
:10500000013DA563236923B901F076FF012005B0B6
:10501000F0BD04F1100000F01BFE0028F4D0354B69
:105020004FF080521A60BFF34F8FBFF36F8FEBE7E3
:1050300001F062FF0020EAE702A800F04FFE01271E
:1050400021E0002384F8443029E0002384F845302F
:105050002BE02046FFF79AFC00F0FEFC09E020461A
:10506000FFF794FC00F0F8FC2046FFF735FC002821
:105070003DD101F01FFFA56B002DBDD1019B002B81
:10508000D6D0002FD8D001F037FF00F043FC01F05C
:1050900011FF94F844305BB2B3F1FF3FD1D094F8E4
:1050A00045305BB2B3F1FF3FCFD001F025FF01A93E
:1050B00002A800F01FFE0028D1D12046FFF70CFC0B
:1050C0000028C6D0019904F1240000F08DFD20468F
:1050D000FFF75CFC00F0C0FC0028CAD1054B4FF084
:1050E00080521A60BFF34F8FBFF36F8FC1E700206C
:1050F0008DE700BF04ED00E070B584B0019158B1B8
:105100000446036C8BB14FF0500383F31188BFF357
:105110006F8FBFF34F8FFEE74FF0500383F311887B
:10512000BFF36F8FBFF34F8FFEE700F031FE0646EF
:1051300050B9019B5BB14FF0500383F31188BFF36B
:105140006F8FBFF34F8FFEE700252E4653E00546D5
:1051500051E0013BA36323683BB123694BB901F0E4
:10516000CBFE0125284604B070BD00F007FFA0600B
:10517000F3E704F1100000F06BFD0028EFD0464B80
:105180004FF080521A60BFF34F8FBFF36F8FE6E787
:1051900045B14FF0500383F31188BFF36F8FBFF316
:1051A0004F8FFEE701F0A8FEDCE702A800F096FDB5
:1051B00001262AE0002384F8443032E0002384F8FA
:1051C000453034E001F076FEA06800F0F1FD0546C0
:1051D00001F092FE3BE02046FFF7D8FB00F03CFCDC
:1051E00009E02046FFF7D2FB00F036FC2046FFF72F
:1051F00073FB002840D101F05DFEA36B002BA8D10A
:10520000019B002BC4D0002ECFD001F075FE00F022
:1052100081FB01F04FFE94F844305BB2B3F1FF3FE5
:10522000C8D094F845305BB2B3F1FF3FC6D001F06F
:1052300063FE01A902A800F05DFD0028D1D120463F
:10524000FFF74AFB0028C6D02368002BBAD001998B
:1052500004F1240000F0C8FC2046FFF797FB00F0A3
:10526000FBFB0028C7D10C4B4FF080521A60BFF3F4
:105270004F8FBFF36F8FBEE70DB9002572E701F0C6
:1052800019FE2046FFF711FB0146A06800F024FE3E
:1052900001F032FEF1E700BF04ED00E088B170B527
:1052A0000D460446866800F06DFD864212D0294600
:1052B0002046FFF721FF024680B1E3680133E36037
:1052C0000CE04FF0500383F31188BFF36F8FBFF3EF
:1052D0004F8FFEE7E3680133E3600122104670BDA3
:1052E0002DE9F843C8B1894617460446F1B101F0EB
:1052F0000BFFEFF311864FF0500383F31188BFF3D8
:105300006F8FBFF34F8FD4F83880B8F1000F19D1E9
:10531000002086F31188BDE8F8834FF0500383F333
:105320001188BFF36F8FBFF34F8FFEE7036C002B25
:10533000DDD04FF0500383F31188BFF36F8FBFF3BD
:105340004F8FFEE794F844506DB249462046FFF770
:105350000BFB08F1FF33A363B5F1FF3F05D06B1CD6
:105360005BB284F844300120D3E723690BB90120F4
:10537000CFE704F1100000F06BFC18B127B1012059
:105380003860C6E70120C4E70120C2E740B110B58C
:10539000044601F08FFDA46B01F0AEFD204610BD68
:1053A0004FF0500383F31188BFF36F8FBFF34F8F1C
:1053B000FEE708B1806B70474FF0500383F311880C
:1053C000BFF36F8FBFF34F8FFEE70000002300E0B5
:1053D0000133072B0BD8064A52F83320002AF7D1A5
:1053E000034A42F8331002EBC3035860704770471A
:1053F00014810020002300E00133072B0DD8074A59
:1054000002EBC30252688242F6D1044A002142F8FC
:10541000331002EBC30359607047704714810020BA
:1054200038B110B50446FFF7E5FF94F846304BB1AC
:1054300010BD4FF0500383F31188BFF36F8FBFF39C
:105440004F8FFEE7204601F093FCF1E770B504466C
:105450000D46164601F02EFD94F844305BB2B3F1D0
:10546000FF3F0DD094F845305BB2B3F1FF3F0BD056
:1054700001F042FDA36B5BB12046FFF787FA70BDD8
:10548000002384F84430EDE7002384F84530EFE74B
:105490003246294604F1240000F0BEFBECE7000090
:1054A000084B1B681B6823B9074B4FF0FF321A608B
:1054B0007047044B1B68DB68DB685A68024B1A6054
:1054C000704700BFAC000020540500202DE9F047D4
:1054D00080460D4617469946089EDDF824A00A9C92
:1054E0009200A521206BFBF705F8236B07F18042A2
:1054F000013A03EB820727F0070785B300220F2A42
:1055000007D8A95CA31883F83410AB5C0BB1013247
:10551000F5E7002384F84330372E00D93726E662BA
:10552000E66400252565201DFFF785F904F11800C4
:10553000FFF781F92461C6F13806A66164626565EA
:1055400084F858504A464146384601F087FC2060AE
:10555000BAF1000F01D0CAF80040BDE8F08700237F
:1055600084F83430D8E7000038B50024372C08D848
:1055700004EB840293000E481844FFF751F90134FC
:10558000F4E70C4D2846FFF74BF90B4C2046FFF78C
:1055900047F90A48FFF744F90948FFF741F9094874
:1055A000FFF73EF9084B1D60084B1C6038BD00BF7B
:1055B000B40000202C050020400500205C050020E0
:1055C0008805002074050020AC000020B0000020F9
:1055D00010B5044601F06EFC214A136801331360D4
:1055E000204B1B685BB1204B1B686BB91D4B1B68C4
:1055F000DA6AE36A9A4207D81A4B1C6004E0194B36
:105600001C601368012B27D0184A136801331360FC
:105610006364E06A164B1B68984201D9144B18600A
:1056200000EB8000211D134B03EB8000FFF706F910
:1056300001F062FC0C4B1B686BB10A4B1B68DA6A09
:10564000E36A9A4207D20C4B4FF080521A60BFF3C4
:105650004F8FBFF36F8F10BDFFF786FFD4E700BFFA
:1056600014050020A800002070050020240500205B
:1056700028050020B400002004ED00E010B5044629
:1056800090F8593063B1012B11D0022B0ED04FF09E
:10569000500383F31188BFF36F8FBFF34F8FFEE783
:1056A000006B01F065FB204601F062FB10BD01F0CC
:1056B0005FFBFBE70F4B1B68D3B110B501F0FAFBA2
:1056C0000D4BDB68DC68201DFFF7DCF80B4A136824
:1056D000013B1360074A1368013B136001F00CFCA7
:1056E0002046FFF7CBFF034B1B68002BE6D110BD14
:1056F000704700BF18050020880500201405002011
:1057000008B5FFF7D7FF064B1B68012BF9D9054BEE
:105710004FF080521A60BFF34F8FBFF36F8FF0E7E7
:10572000B400002004ED00E070B504460D46174BB0
:105730001E68174B18680430FFF7A4F8B4F1FF3F58
:105740000DD03444124B1B685C60A64210D9114B3B
:1057500018680F4B19680431FFF77BF870BD002DF6
:10576000EFD00B4B196804310B48FFF767F8F5E7EA
:105770000A4B1868064B19680431FFF76AF8084BA2
:105780001B68A342EAD9064B1C60E7E79C05002092
:10579000A8000020B000002074050020AC0000200C
:1057A0005405002070B586B00B9D0C9C75B1B4B14A
:1057B0005C260496049E5C2E1AD04FF0500383F3AF
:1057C0001188BFF36F8FBFF34F8FFEE74FF0500389
:1057D00083F31188BFF36F8FBFF34F8FFEE74FF056
:1057E000500383F31188BFF36F8FBFF34F8FFEE732
:1057F000049E2563022584F85950002503950294E0
:1058000005AD01950A9D0095FFF760FE2046FFF764
:10581000DFFE059806B070BD2DE9F04385B0074660
:10582000884614461E46900001F02AFA00B38146CD
:105830005C2001F025FA0546B0B1C0F83090E5B122
:10584000002385F85930039302950D9B01930C9B1F
:1058500000933346224641463846FFF737FE284636
:10586000FFF7B6FE012005E0484601F081FAE6E7C1
:105870004FF0FF3005B0BDE8F0834FF0FF30F9E79F
:1058800010B588B000240594069407AA06A905A8B7
:1058900001F080F9059B0293069B01930094234637
:1058A000079A17491748FFF77DFF48B100F0E0FB62
:1058B0000346012B06D0B3F1FF3F18D008B010BD4E
:1058C0000023F6E74FF0500383F31188BFF36F8F87
:1058D000BFF34F8F0C4B4FF0FF321A600B4B01227E
:1058E0001A600B4B00221A6001F086FBE6E74FF0CE
:1058F000500383F31188BFF36F8FBFF34F8FFEE721
:10590000B028010801570008540500207005002048
:105910009C050020024A136801331360704700BFE2
:1059200020050020014B1868704700BF9C0500202F
:1059300008B501F0E9FB014B186808BD9C05002083
:10594000F8B53A4B1B68002B65D1394B1D68013502
:105950001D60C5B9374B1B681B6843B14FF050033E
:1059600083F31188BFF36F8FBFF34F8FFEE7314A88
:105970001168314B186810601960304A13680133A0
:105980001360FFF78DFD2E4B1B68AB420CD9002432
:105990002C4B1B68DB6A03EB83039A002A4B9B5852
:1059A000012B3DD901243BE0002416E0244B4FF0AD
:1059B000FF321A60ECE7224A1360E9E703EB830346
:1059C0009A00394620481044FEF738FFF26A1D4B12
:1059D0001B68DB6A9A4200D30124164B1B681B68C4
:1059E000002BE3D0134B1B68DB68DE6873689D42B5
:1059F000E1D3371D3846FEF745FFB36A1BB106F108
:105A00001800FEF73FFFF36A104A12689342D5D997
:105A10000E4A1360D2E70E4A136801331360002464
:105A20000C4B1B6803B101242046F8BD2005002063
:105A30009C050020AC000020B0000020580500208C
:105A400054050020A8000020B400002028050020F4
:105A50001C050020A005002038B5344B1B6843B955
:105A60004FF0500383F31188BFF36F8FBFF34F8F55
:105A7000FEE701F01FFA2D4B1A68013A1A601B6805
:105A8000002B4DD12A4B1B680BB9002449E00024A0
:105A9000284B1B681BB3274BDB68DC6804F118003C
:105AA000FEF7F0FE251D2846FEF7ECFEE06A224BCD
:105AB0001B68984201D9204B186000EB80002946F2
:105AC0001E4B03EB8000FEF7B9FEE26A1C4B1B681D
:105AD000DB6A9A42DCD31B4B01221A60D8E70CB177
:105AE000FFF7DEFC184B1C6874B9164B1C68C4B178
